:100000000C9428030C946F030C946F030C946F03EF
:100010000C946F030C946F030C946F030C946F0398
:100020000C946F030C946F030C94CF1E0C94A11FBF
:100030000C9447190C946F030C946F030C946F038A
:100040000C946F030C946F030C946F030C946F0368
:100050000C946F030C94A0190C946F030C946F0311
:100060000C946F030C946F030C946F030C946F0348
:100070000C946F030C946F030C946F030C946F0338
:100080000C946F030C946F030C946F030C946F0328
:100090000C946F030C946F030C946F030C946F0318
:1000A0000C946F030C946F030C946F035F0E5F0E40
:1000B000910E910EDE0E121012101210FC0E910F06
:1000C000A20FA20F0210121012100B10AE10AE10E1
:1000D000C010C010B710C010C010C010AE10AE10CD
:1000E000BC10C010C010BC100E2035202D213520B2
:1000F0002D218120A4202D21FB200A212B0014007A
:100100001A000800150017001C0018000C0012004F
:1001100013002A00290004001600070009000A0045
:100120000B000D000E000F0033003400E1001D0035
:100130001B000600190005001100100036003700F2
:1001400038002D000000E300E200E00003512C0025
:100150002C0028445000510052004F002B00140086
:100160001A00090013000A000D000F0018001C00FF
:1001700033002A00290004001500160017000700AC
:100180000B00110008000C0012003400E1001D00FB
:100190001B000600190005000E0010003600370095
:1001A00038002D000000E300E200E00003512C00C5
:1001B0002C0028445000510052004F002B00340006
:1001C0003600370013001C0009000A000600150065
:1001D0000F002A00290004001200080018000C007B
:1001E00007000B001700110016003800E100330073
:1001F00014000D000E001B00050010001A0019006D
:100200001D002D000000E300E200E00003512C007F
:100210002C0028445000510052004F003502360097
:1002200037002602270222022302670034004B0017
:100230004E002A004C008200EF002F023002ED0039
:100240001E02200238003102240221020100F100C6
:10025000F0002F003000EE00350034023100330092
:100260001F024600F2000100010001000100010030
:10027000010006514900AA00A900AE0035007C002B
:10028000450044004300420062005F0060006100DE
:1002900063002A004C007D00410040003F003E000A
:1002A00055005C005D005E005700560001007B00B9
:1002B0003D003C003B003A00540059005A005B00EE
:1002C000850031000100BD00BE00010006510100A3
:1002D00001000100AB00AA00A900AE001E00A700AB
:1002E000A600F500F400F300F200F100ED00F900C3
:1002F000FA001E00005CA5001A0008001500170097
:100300001C00EF00EE00F00001002F0000000400D0
:100310001600070009000A000B000D000E000F0078
:1003200033003400065100000000060019000000F0
:10033000000011001000D05CCF5CD25C0100005CBA
:10034000015CC35CC45CC65CC75CC85CC95CCA5C5D
:10035000CB5C4C0001000100295C1D5C1E5C135C41
:100360000A5C0052015202520553000001002B5C4E
:100370002A5C265C275C2C5C2D5C00000000075387
:100380000100010000000100010001000100010066
:1003900001000100010001000100010029001E0010
:1003A0001F00200021002200230024002500260039
:1003B00027002A002B0014001A000800150017005F
:1003C0001C0018000C00120013000651E10004008C
:1003D0001600070009000A000B000D000E000100C6
:1003E00035002800E0001D001B00060019002C004D
:1003F000050011001000A800A900AA0044454255BC
:10040000473A2064697361626C65642E0A00444552
:100410004255473A20656E61626C65642E0A000A97
:10042000002530313662003A200025303258000A6B
:10043000722F632030313233343536373839414208
:10044000434445460A000A002530325820006B65B7
:1004500079626F6172645F7265706F72743A2000C6
:100460000A0025303258006B6579626F6172645FF3
:100470007365745F6C65643A20004F6E6573686FD6
:10048000743A206163746976653A2025640A0064D1
:10049000656C5F6B65795F6269743A2063616E2792
:1004A000742064656C3A20253032580A0061646417
:1004B0005F6B65795F6269743A2063616E277420AF
:1004C0006164643A20253032580A005B735D004B4A
:1004D0006579626F6172642073746172742E0A00B0
:1004E0005B575D005B535D005B525D005B445D00EC
:1004F0005B435D000E0350006C0061006E00630002
:100500006B0000000A034F004C004B00420000004B
:100510000403090409025B00030100A0FA090400B6
:10052000000103010100092111010001224000071F
:1005300005810308000A0904010001030000000905
:100540002111010001226D000705820320000A0924
:10055000040200020300000009211101000122220F
:100560000007058303200001070503032000011293
:1005700001100100000008A80301AE010001020003
:10058000010631FF0974A1010975150026FF0095C8
:1005900020750881020976150026FF009520750850
:1005A0009102C005010980A101850319012AB70044
:1005B000150126B700950175108100C0050C0901D1
:1005C000A101850419012AA002150126A0029501A6
:1005D00075108100C005010906A1018505050719EF
:1005E000E029E71500250195087501810205071925
:1005F0000029EF1500250195F07501810205081904
:10060000012905950575019102950175039101C0B8
:1006100005010906A101050719E029E715002501D3
:10062000950875018102950175088101050719007A
:1006300029FF150026FF0095067508810005081999
:10064000012905950575019102950175039101C078
:1006500011241FBECFEFDAE0DEBFCDBF04B603FE2C
:1006600027C080917C0290917D02A0917E02B09182
:100670007F028730904BA740B04BD1F410927C02A0
:1006800010927D0210927E0210927F0214BE84B7F7
:10069000877F84BF0FB6F894A89580916000886129
:1006A00080936000109260000FBEE0E0F8E30995CF
:1006B00011E0A0E0B1E0ECE6F3E402C005900D9299
:1006C000AE38B107D9F722E0AEE8B1E001C01D9223
:1006D000AC37B207E1F70E94041C0C94B4210C94CF
:1006E0000000FF93EF93E0918E01F0918F0130971E
:1006F00009F00995EF91FF910895FC0185918030F3
:1007000011F0EFDFFBCF0895FF27E0E230E247FF73
:100710000CC0419597FF09C0EDE2609570958095FA
:100720009095611D711D811D911D27FF02C02195AE
:1007300030E350E2AA27660F771F881F991FAA1F70
:10074000A41710F0A41B63955A95A9F7AA3008F0D6
:10075000A95FA05DAF93F3956115710581059105C2
:1007600041F7ED3211F4EF93F395F21718F43F933C
:10077000F395FBCF8F91B5DFFA95E1F70895E991F5
:10078000F9918591803021F0853219F0AADFF9CFF7
:10079000089520E0E89455915532C1F3503311F497
:1007A000689455915A3348F4505390F3220F022E17
:1007B000220F220F200D250FF4CF0EF421958991E1
:1007C0009991533619F3533729F1533559F1BC0137
:1007D00088279927E8945C3621F489919991689447
:1007E0005591543639F446EF7EF077FF0DC08FEF08
:1007F0009FEF0AC055374AE039F0583540E121F003
:10080000523642E009F00895FF93EF937DDFEF91B8
:10081000FF91B7CFFF93EF93FC0181918030B9F343
:1008200060DFFBCFFF93EF9368DFF1CFDF93CF93D0
:10083000CDB7DEB72596A3DFCF91DF9108956E9AED
:10084000769A0C94D00781E0089581E008950C9485
:10085000250408950C9429041F93CF93DF9300D0AF
:1008600000D01F92CDB7DEB749835A836B83309196
:10087000AE0189819A81311114C0662359F0222377
:1008800049F00E94E715182F682F89819A810E94EC
:10089000901503C00E94BB15182F69817A81812FA2
:1008A00004C00E94E71569817A810F900F900F9024
:1008B0000F900F90DF91CF911F910C943305FC01A5
:1008C000262F408151816281738184810C942C0494
:1008D000CF93DF93EC0160E00E945F04BE01DF91E3
:1008E000CF910C942A040E944F070C941F040C947F
:1008F000CE0708950E949C100E9479042FEF84E394
:100900009CE0215080409040E1F700C000000C9432
:10091000C6190F931F93CF93DF938C0161E00E9460
:100920005F04EC01B8010E942704882309F45BC02E
:10093000B801CE010E946809882309F454C0B801A7
:10094000CE010E94BA09882309F44DC0B801CE0136
:100950000E94E50A882309F446C0F80182818823B1
:10096000D9F1CF3D8CE5D80779F140F4C115FCE50C
:10097000DF0791F0C130DC4591F02EC0CC35EDE5BC
:10098000DE0741F1CD35FDE5DF0709F1CB35DD456A
:1009900019F50E94971620C00E947A0424C0809105
:1009A0003202C82FC095C170C0FB80F9809332021B
:1009B000CC2329F08EE094E00E947D0314C08CEFDC
:1009C00093E00E947D0310C00E940A180CC00E9490
:1009D0008E1602C00E949A16C801DF91CF911F9116
:1009E0000F910C942304C0E08C2FDF91CF911F91C5
:1009F0000F9108958295982F937344E0949F9001EE
:100A000011248C7C86958695282B822F8575880FDE
:100A10002A7A2695822B0895CF93DF93D92F0E94AF
:100A2000FA04C82F8D2F0E94FA042C2F30E0322FA9
:100A30002227A901482BCA01DF91CF91089508957B
:100A40000C941F0581E008950C942205CF93C82FC4
:100A50000E9420058C2F0E942405CF91089580E0EC
:100A600090E00895089520E3829FC0011124FC01C5
:100A70002CE0729FE00DF11D1124E60FF11DEE0F29
:100A8000FF1FE450FF4F859194910895880F991F9F
:100A9000FC01E15EFB4F859194910895CF93DF9324
:100AA0000E9433050E946006EC018115904508F014
:100AB00043C0C11580E4D80708F0CBC0C03ED105C3
:100AC00028F5C03CD10508F0B3C0C83AD10578F488
:100AD000C53AD10508F0A4C0C130D10509F4ECC075
:100AE00008F4E8C0C430D10508F0E6C0E3C0CF3B4D
:100AF000D10508F0DFC0C85AD0E0CC0FDD1FC35FBE
:100B0000DE4F0990D881C02DD464D6C0C11590E2C3
:100B1000D90750F4C11521E0D20708F0CDC0C83E76
:100B2000D10508F4C9C0C6C0C11580E3D80708F0D4
:100B300086C0CE019F707FC0C11595E5D90708F02A
:100B400043C0C11524E5D20708F09AC0C11582E55B
:100B5000D80708F5C11591E5D90708F07DC0CE0189
:100B600074E0969587957A95E1F783709C2F937042
:100B700021E030E002C0220F331F9A95E2F73C6873
:100B8000382BCF70C695C69580E2C89FE00111242E
:100B9000C22BD32B91C09E01237033278C2F8695B7
:100BA0008695C115D34508F05CC0C1E0D0E002C015
:100BB000CC0FDD1F2A95E2F720E2829FC0011124AD
:100BC000C82BD92BDC6878C0C11529E5D207A0F461
:100BD000C11588E5D80708F058C0C11596E5D907B2
:100BE00008F068C08C2F0E94F4068F71C82FD0E0E7
:100BF000DC2FCC27D06260C0C1152AE5D20708F4EB
:100C000049C0CE0190568115904208F053C08D2FF7
:100C10008F710E94F406DD27D0628F71D82B4CC0F3
:100C2000C55AD0E0C55CDE4FC881D0E0D06444C076
:100C3000CE01805C91090E944605EC013DC0CE01C9
:100C40009927D3FF03C0EC01D86C36C0EC01D06CFF
:100C500033C0DF70D06A30C0DC2FCC27C16FD06AC0
:100C60002BC0C1E0D0E002C0CC0FDD1F2A95E2F717
:100C700020E2829FC0011124C82BD92BDA681CC046
:100C8000DC2FCC27C46FD06A17C0DC2FCC27C06FF5
:100C9000D06A12C08C2F8F700E94F40694E0D69513
:100CA000C7959A95E1F7CF70D0E0DC2FCC27D069BB
:100CB000C82B02C0C0E0D0E0CE01DF91CF910895F3
:100CC0008238910569F1B0F48133910509F46DC062
:100CD00048F48932910509F463C08A32910509F418
:100CE00069C008958533910509F455C0893391058C
:100CF000B9F00895833E910569F138F4803E91057D
:100D0000B1F0823E910509F10895863E9105A9F161
:100D1000873E9105B9F1843E910509F064C023C076
:100D20002091590220FD4FC021FD4DC008958091B2
:100D3000590280FD44C080915A0280FF44C08091D6
:100D4000590284FD42C083EE4DC08091590282FF5A
:100D500038C0F5CF8091590282FD33C080915A028C
:100D600080FD31C0ECCF80915A0281FF32C080916A
:100D7000590284FD2AC087EE35C08091590283FF55
:100D800026C0F5CF8091590283FD21C080915A027F
:100D900081FD1FC0ECCF8091590285FD1CC01DC094
:100DA0008091590285FD19C016C08091590286FDB7
:100DB00016C017C08091590286FD13C010C089E388
:100DC00011C082EE0FC080EE0DC080E00BC086EE39
:100DD00009C084EE07C089E205C085E303C08AE24A
:100DE00001C081E390E008959091590292FF0DC0F7
:100DF000282F2871283019F4877F846006C0282F97
:100E00002471243011F48B7F886093FF0DC0282F4C
:100E10002871283119F4877E846106C0282F247137
:100E2000243111F48B7E886120915A0220FF0DC07D
:100E3000382F3871383019F4877F816006C0382F19
:100E40003171313011F48E7F886021FF0DC0282F61
:100E50002871283119F4877E816106C0282F2171FD
:100E6000213111F48E7E886194FD877E08950C9463
:100E70005C170E942C088FE39CE90197F1F700C0F2
:100E800000000E942C0880E00E94730780FF04C0CD
:100E90000E9437070C94C61908950C9439070E94D4
:100EA0006217811102C00E940A180E946D17809378
:100EB00032020E94751790935A02809359020E9441
:100EC0004D070E947117682F70E080E090E00E944B
:100ED0009214609105027091060280910702909130
:100EE00008020C94CA14E82FF0E0EE0FFF1FED5932
:100EF000FD4F808191810895CF92DF92EF92FF9212
:100F00000F931F93CF93DF938FE294E00E947D03B2
:100F100083E6E82E82E0F82EC0E0D0E09AE2C92E07
:100F200094E0D92E01E214E0DF93CF93DF92CF92C9
:100F30000E94160487E294E00E947D03F7018191EC
:100F400091917F010E940C059F938F931F930F93A4
:100F50000E9416048FE194E00E947D0321968DB7D4
:100F60009EB708960FB6F8949EBF0FBE8DBFC430D3
:100F7000D105D1F6DF91CF911F910F91FF90EF90A6
:100F8000DF90CF90089580EA8A95F1F7089500C028
:100F900008950C94C30708950C94CB070C94CC07C8
:100FA0000C94CB07F894E82FE295EF70F0E031A1B4
:100FB000282F2F7081E090E001C0880F2A95EAF772
:100FC000982F9095932391A392A1892B82A3789433
:100FD00008950F931F93CF93DF9380E90E94D20768
:100FE00085E90E94D20785E30E94D20786E30E942A
:100FF000D207CEE3D1E00AE411E089910E94D20742
:101000000C171D07D1F710925C0210925B02109230
:1010100064021092630210925E0210925D021092BE
:101020006602109265021092600210925F021092A6
:10103000680210926702109262021092610210928E
:101040006A021092690284E00E94BA08DF91CF918F
:101050001F910F910C9473047F928F929F92AF9285
:10106000BF92CF92DF92EF92FF920F931F93CF9395
:10107000DF93CAE4D1E08BE5A82E82E0B82E93E698
:10108000E92E92E0F92E712C01E010E06E018881CA
:10109000F894E82FE295EF70F0E021A18F70A8019D
:1010A00002C0440F551F8A95E2F7CA01922F982B70
:1010B00091A392A18095892382A378940E94C70767
:1010C000EEE3F1E020E030E0812C912C4191A42F5F
:1010D000A295AF70B0E090968C9190E04F7002C0F6
:1010E000959587954A95E2F780FD08C0C801022EC4
:1010F00002C0880F991F0A94E2F702C080E090E0D6
:10110000882A992A2F5F3F4F2C303105F9F6219616
:10111000F60180810E94D2070E94C907F5018081F3
:1011200091818816990621F09182808281E001C028
:1011300080E0782AF2E0AF0EB11CEA14FB0409F05B
:10114000A5CF272D44E063E672E08BE592E00E9494
:10115000BB080E947704872DDF91CF911F910F91DB
:10116000FF90EF90DF90CF90BF90AF909F908F90C7
:101170007F9008950895FF920F931F93CF93DF936D
:10118000F82E092F162FD72FC42F222349F081E0E4
:10119000809392010E94791990939101809390011C
:1011A000809192018823D9F08091900190919101D2
:1011B0000E949119069798F0EF2DF02FA12FBD2FC7
:1011C00080E090E04C2F50E08417950734F4219193
:1011D00031912D933D930196F7CF10929201DF91BB
:1011E000CF911F910F91FF9008950F931F93CF936D
:1011F000DF93C42FD22FFC0182818823C9F0409352
:1012000095010E947919909394018093930180E253
:101210008C0F883008F057C0C77081E001C0880F7C
:10122000CA95EAF7DF91CF911F910F910C941E0E92
:1012300080919501481330C0809193019091940161
:101240000E949119883C910538F510E21D0FCD17C9
:10125000B9F080E28C0F883040F4C77081E001C0A3
:10126000880FCA95EAF70E94250E183028F581E00C
:101270009D2F977001C0880F9A95EAF70E941E0E65
:10128000802F0E94150E1830F0F4D77081E001C055
:10129000880FDA95EAF70AC080E28C0F883098F45C
:1012A000C77081E001C0880FCA95EAF7DF91CF913E
:1012B0001F910F910C94250E802FDF91CF911F91DC
:1012C0000F910C94150EDF91CF911F910F910895FE
:1012D0000F939C01CB01243F4CE5340731F188F496
:1012E000293DFCE53F07D9F02A3D4CE5340779F16B
:1012F000283D3C45A9F506E221EE41EE68ED7CE58E
:101300002BC0263FFCE53F07E1F0A8F0273F3C4516
:1013100039F507E225EE46EE67EF7CE51DC007E2F2
:1013200025EE45EE69ED7CE517C006E221EE40EEC4
:1013300064EF7CE511C007E225EE44EE65EF7CE545
:101340000BC006E221EE42EE66EF7CE505C008E246
:1013500021E045EE6AED7CE50E94F50880E008C0DA
:10136000FC018281882319F01092950101C081E06F
:101370000F910895CF93DF93EC01FB0182818823C5
:1013800009F41FC1C230FCE5DF0708F41BC1C631F8
:101390009CE5D90738F09E012B5F3C45293031058B
:1013A00008F010C10E94751790935A028093590259
:1013B000C031ECE5DE0709F4C3C008F041C0C83015
:1013C0008CE5D80709F49AC0F0F4C430ECE5DE07E8
:1013D00009F487C068F4C2308CE5D80709F477C0F7
:1013E000C330DC4509F0E3C080915902826076C0C9
:1013F000C630ECE5DE0709F46EC008F07BC08091D2
:10140000590288606BC0CC308CE5D80709F485C0E0
:1014100068F4CA30ECE5DE0709F474C008F079C05E
:101420000E949C1080915902806858C0CE308CE593
:10143000D80709F476C008F07FC0809159028BC0AC
:10144000CC3FECE5DE0709F44FC018F5C3318CE55D
:10145000D80709F47DC078F4C131ECE5DE0709F462
:1014600073C0C231DC4509F0A2C00E949C1080917B
:1014700059028F7733C0C5318CE5D80709F472C0A3
:1014800008F486C0CB3FDC4509F091C080915A0238
:101490003EC0C115FDE5DF0709F45FC058F4CE3F3B
:1014A0009CE5D90709F444C008F43FC080915A0272
:1014B00082602DC0C230FDE5DF0709F475C008F475
:1014C0005DC0C330DD4509F072C080E06EC0809120
:1014D0005902816003C08091590280618093590252
:1014E00066C08091590211C080915A028260809337
:1014F0005A025DC0809159028062F0CF80915902FA
:101500008064ECCF8091590288608460E7CF81606D
:10151000EECF809159028E7FE1CF809159028D7F6D
:10152000DDCF80915902877FD9CF80915A0218C0B0
:1015300080915A028D7FDBCF809159028F7ECECF72
:10154000809159028F7DCACF809159028F7BC6CF7F
:1015500080915902877F8B7FC1CF80915A028D7F06
:101560008E7FC5CF8091590282FB222720F991E01E
:10157000922790FB82F990FB83F9B0CF80915A02B9
:10158000982F909591708E7F892B90FB81F9AFCF2A
:101590000E949C108091590287FB222720F991E03C
:1015A000922790FB87F99ACF81E00E940C188091D6
:1015B000590290915A020E9486170E949C1080E066
:1015C00001C081E0DF91CF910895CF93DF93863101
:1015D0009C4541F5EB010E949D16982F8A81209130
:1015E000000130910101882379F09A7A81E009F4B1
:1015F00080E080939601911102C069E201C065E329
:10160000C9010E94C9180AC080919601811102C0C7
:1016100069E201C065E3C9010E94D4180E94EF1677
:1016200080E001C081E0DF91CF91089590939C010B
:1016300080939B010895E0919B01F0919C0130976C
:1016400021F00190F081E02D099480E00895EF925F
:10165000FF921F93CF93DF93FC01A0919B01B09168
:101660009C01109709F442C080910C01882341F03D
:101670008091590287FF04C08081818385E0808347
:10168000EF011296ED91FC911397CE01099580918F
:10169000320282FF2BC080FF04C08EE494E00E94DF
:1016A0007D0318E088E4E82E84E0F82E8091320271
:1016B00080FF0BC088811F928F93FF92EF920E9450
:1016C00016040F900F900F900F901150219611114A
:1016D000EDCF8091320280FF09C086E494E0DF9173
:1016E000CF911F91FF90EF900C947D03DF91CF91EC
:1016F0001F91FF90EF9008952091990130919A01E8
:101700002817390771F090939A0180939901E0911D
:101710009B01F0919C01309721F00680F781E02D2C
:10172000099408952091970130919801281739075D
:1017300071F09093980180939701E0919B01F09153
:101740009C01309721F00084F185E02D09940895E3
:101750000E9485196093AA017093AB018093AC013C
:101760009093AD016093A6017093A7018093A801A7
:101770009093A901089585B7806885BF85B7806873
:1017800085BF089581E008950C94C20B08950C94D0
:10179000C60B0C94C60B0C94C90B0C94C60B0C9482
:1017A000CD0B0C94C60B0E94BB0B81EA9BE10E94FF
:1017B000EA190E94D10B0C94CF0B0E94C70B0C941A
:1017C000C60B0E9470190E94E9070C94CB0BCF93B3
:1017D000C82F8091320282FF1EC080FF04C087E6BE
:1017E00094E00E947D038091320280FF0CC01F9222
:1017F000CF9382E694E09F938F930E9416040F90FC
:101800000F900F900F908091320280FF04C080E60D
:1018100094E00E947D038C2FCF910C9426056F924B
:101820007F928F929F92AF92BF92CF92DF92EF9270
:10183000FF920F931F93CF93DF93CDB7DEB72A9715
:101840000FB6F894DEBF0FBECDBF0E942C088111E9
:101850000E94A80B3EE9832E31E0932E00E010E0B9
:10186000C02E802F0E9473075C01F401619071907B
:101870004F016826792661147104B1F40F5F1F4F80
:101880000430110569F78FEF89838A831B820E94D8
:1018900079198160782F9D838C8349815A816B816E
:1018A0008D810E94C30C3AC08091320281FD0E945A
:1018B0007C07D12CEE24E394F12CC3018E219F21CF
:1018C000892B29F10E94C40B8823A9F0DE82CF82E4
:1018D000AE20BF2081E0AB2809F480E088870E9419
:1018E00079198160782F9A8789874E815F81688511
:1018F0008A850E94C30C000F111FF801E256FE4FAB
:1019000080819181E826F926F182E08207C0D39494
:10191000EE0CFF1CFCE0DF12D0CFB0CF0E941B0BFF
:1019200090919D018917D1F00E941B0B80939D011E
:101930002A960FB6F894DEBF0FBECDBFDF91CF91D0
:101940001F910F91FF90EF90DF90CF90BF90AF90DD
:101950009F908F907F906F900C94E70B2A960FB614
:10196000F894DEBF0FBECDBFDF91CF911F910F91D5
:10197000FF90EF90DF90CF90BF90AF909F908F90AF
:101980007F906F900895DF92EF92FF920F931F93D5
:10199000CF93DF93CDB7DEB72B970FB6F894DEBFAA
:1019A0000FBECDBFF42E052F162FE72ED82E6111B6
:1019B0000E94BD16FE01319686E0DF011D928A95D8
:1019C000E9F77E2D4F2D502F612F8D2D9E810E9486
:1019D00055132B960FB6F894DEBF0FBECDBFDF9127
:1019E000CF911F910F91FF90EF90DF900895FC0130
:1019F000808191810E9429160895CF93882309F44C
:101A00009CC0C82F8238C1F40E941B0B81FD95C079
:101A100069E380910001909101010E94C9180E9420
:101A2000EF162FEF81EE94E0215080409040E1F7D7
:101A300000C0000069E319C0833801F50E941B0B48
:101A400080FD7BC063E580910001909101010E94BF
:101A5000C9180E94EF162FEF81EE94E021508040CC
:101A60009040E1F700C0000063E580910001909193
:101A700001010E94D418CF910C94EF168438C1F460
:101A80000E941B0B82FD59C067E480910001909178
:101A900001010E94C9180E94EF162FEF81EE94E019
:101AA000215080409040E1F700C0000067E4DDCFA6
:101AB0008CEF8C0F813AD0F46C2F809100019091C3
:101AC00001010E942718882349F06C2F80910001A2
:101AD000909101010E94D4180E94EF166C2F809102
:101AE0000001909101010E94C918C5CF80E28C0FBE
:101AF000883048F4C77081E001C0880FCA95EAF7C2
:101B00000E94A016B8CFEBE5EC0FE33040F4F0E014
:101B1000E458FE4F808190E0CF910C947C0BC85A22
:101B2000C73158F4EC2FF0E0EE0FFF1FE25BFE4FE1
:101B300080819181CF910C94920BCF91089588234D
:101B400009F45BC0682F823879F40E941B0B81FF77
:101B500054C069E380910001909101010E94C9186D
:101B60000E94EF1669E310C08338B1F40E941B0B8A
:101B700080FF43C063E580910001909101010E94C4
:101B8000C9180E94EF1663E5809100019091010150
:101B90000E94D4180C94EF16843879F40E941B0B21
:101BA00082FF2BC067E480910001909101010E94A7
:101BB000C9180E94EF1667E4E7CF8CEF860F813AD1
:101BC00018F380E2860F883048F4677081E001C026
:101BD000880F6A95EAF70E94A616DCCF8BE5860F80
:101BE000833020F480E090E00C947C0B685A6731DD
:101BF00020F480E090E00C94920B08951F93CF9313
:101C0000DF93182FEB010E94FD0C209741F08FE924
:101C10009FE00197F1F700C000002197F6CF812FD8
:101C2000DF91CF911F910C949F0D893319F060E0E3
:101C300070E002C060E570E00C94FE0D882321F096
:101C40000E94A0160C94EF160895882321F00E949C
:101C5000A6160C94EF160895CF92DF92EF92FF92A2
:101C60000F931F93CF93DF937C01062FC72FFC01A7
:101C7000D281158112951F700E946116882399F0F8
:101C8000DD2389F08C2F807F803421F080E2800F6B
:101C9000883048F082E00E943F170E94611691E070
:101CA000D82ED92601C0D12CCC2EC2948FE0C822C8
:101CB0008C2D90E0FC01EA5AFF4F0C946C218C2F84
:101CC000807FCF70882311F0C295C07FDD2399F00B
:101CD000CC2309F482C180E2800F883010F001111A
:101CE00004C08C2F0E94A01603C08C2F0E94B01637
:101CF0000E94EF1672C1802F0E949F0DCC2309F421
:101D000091C180E2800F883010F0011104C08C2F47
:101D10000E94A61603C08C2F0E94B6160E94EF16D2
:101D200081C18C2F807FCF70803211F0C295C07F2F
:101D3000002319F00130C9F022C0DD2371F0112316
:101D400041F0113031F40E94D0168C2B0E94D8162D
:101D500069C10E94D0168C2B1DC0112319F01130BF
:101D600009F460C10E94E51625C0DD2321F016307C
:101D700008F058C10EC0153008F054C11BC0DD2357
:101D800061F0112331F0F701858180FF26C18F704A
:101D900085838C2F0E941E0E45C1112359F00933F3
:101DA00009F02CC1FFEF27EE83E0F1502040804086
:101DB000E1F722C18C2F0E94250E34C18C2F86950D
:101DC0008695837019F0813061F02CC1DD2321F0FC
:101DD000802F9C2F937002C080E090E00E947C0BCB
:101DE00029C1DD2321F0802F9C2F937002C080E059
:101DF00090E00E94920B1EC18C2F837009F045C0A9
:101E0000D11114C1402F429546954770440F440F9D
:101E1000602F6F70862F90E0A0E0B0E0042E04C029
:101E2000880F991FAA1FBB1F0A94D2F704FF10C086
:101E30000FE010E020E030E004C0000F111F221F6F
:101E4000331F4A95D2F7009510952095309503C021
:101E500000E010E09801C695C695C370BC01CD01A5
:101E6000602B712B822B932BC23049F058F4C13078
:101E700019F00E94A614DAC00E949414D7C00E94E0
:101E8000B814D4C00E949214D1C0DD2319F08C2F55
:101E9000817001C08695882309F4C8C0402F4295FF
:101EA00046954770440F440F602F6F70862F90E067
:101EB000A0E0B0E0042E04C0880F991FAA1FBB1F2A
:101EC0000A94D2F704FF10C00FE010E020E030E0E9
:101ED00004C0000F111F221F331F4A95D2F700952F
:101EE00010952095309503C000E010E09801C6954C
:101EF000C695C370BC01CD01602B712B822B932B37
:101F0000C23049F058F4C13019F00E946B158EC0F0
:101F10000E9459158BC00E947D1588C00E94CC1468
:101F200085C0CF70DD2339F08C2F0E94F214802FF2
:101F30000E941E0E7BC0802F0E94250E8C2F0E94B7
:101F4000131574C0023F01F128F4003F41F0013F36
:101F5000A1F03FC0033FF9F0043F39F13AC0DD235F
:101F600041F0153008F05EC08C2F8F710E9438153B
:101F700059C0163008F056C0F7CFDD2339F08C2F4A
:101F80008F710E94F2144EC0DD23C9F38C2F8F7124
:101F90000E94131547C0DD2329F08C2F8F710E94FA
:101FA000DD1440C00E94D8143DC0DD2349F0CF713C
:101FB0008C2F0E94F21463E08C2F0E94241732C0F1
:101FC00081E00E943F17123068F182E00E943F17C3
:101FD00029C0DD2331F0112391F2802F0E94FD0CE6
:101FE00021C0112399F2093349F49FEFE7EEF3E0A2
:101FF0009150E040F040E1F700C00000802F0E94C7
:102000009F0D10C04C2F4F70602FC7010E942F05ED
:102010000E9403140FC04C2F4F70602FC7010E9405
:10202000320508C088EF8C0D843020F40E941B0B11
:102030000E942605DD20C9F00E945D1680FD15C0B6
:10204000F70112820E9457160E94F214C7010E94E3
:1020500056100E945716DF91CF911F910F91FF905C
:10206000EF90DF90CF900C941315DF91CF911F91DB
:102070000F91FF90EF90DF90CF9008950F931F93F3
:10208000CF93DF93EC01688179818A810E943416B5
:102090008C010E948F150E948014B801CE010E940D
:1020A0002C0EDF91CF911F910F910895CF93DF9365
:1020B000EC01988189812B813C81232B31F08F3F6A
:1020C00031F481E09F3F19F403C081E001C080E05A
:1020D00080FD19C0CE010E94890481110CC00E94AC
:1020E0006116882381F08A81882369F082E0DF917C
:1020F000CF910C943F17CE010E943E10CE01DF918C
:10210000CF910C946804DF91CF91089580E090E026
:102110000E947C0B80E090E00E94920B0E94BD1612
:102120000E94CD160C94EF16809100019091010150
:102130000E94DF180C9486100E94AD160C94941027
:10214000E92FE295EF704E2F50E0FA013297EE3012
:10215000F105B0F4EA59FF4F0C946C21803F91F0E7
:1021600018F4883E68F40EC0843F51F40BC0883EDA
:1021700048F0813F29F406C093FB882780F9089531
:1021800080E0089581E008950E9429160E94A01021
:102190000895CF93DF9300D000D01F92CDB7DEB764
:1021A0000F900F900F900F900F90DF91CF910895A7
:1021B000CF93DF9300D000D000D0CDB7DEB7269606
:1021C0000FB6F894DEBF0FBECDBFDF91CF9108955B
:1021D0001F93CF93DF93C091AF0116E08091B001C0
:1021E000C81799F0D0E01C9FF0011D9FF00D11243D
:1021F000EF54FE4F408151816281738184819581CA
:102200000E94D8102196C770E9CFDF91CF911F911E
:1022100008954091E1015091E2016091E3017091D4
:10222000E4018091E5019091E6010C94D8100F93A0
:102230001F93CF93DF938091E60182958F7009F011
:102240005DC08091E301882309F458C08091AF01FB
:102250001091B0016091E1017091E201C091E4013F
:10226000D091E50191E06F3F09F090E0292F06E061
:10227000811709F443C0209721F07F3F21F030E01F
:1022800003C031E001C0322F90E030FD34C0089F20
:10229000F001099FF00D1124DF01AF54BE4F1196DC
:1022A0003C911197371327C03C91361324C01296E6
:1022B0003C91129731111FC013964D915C91149768
:1022C0004C1B5D0B483C5105B0F48091E6018F70CA
:1022D00080618093E601EA54FE4F80818F708061B7
:1022E000808381EE91E00E945610DF91CF911F9183
:1022F0000F910C94E81001968770BACFDF91CF91BF
:102300001F910F9108959F92AF92BF92CF92DF924B
:10231000EF92FF920F931F93CF93DF93CDB7DEB76A
:1023200061970FB6F894DEBF0FBECDBF8C0185E07C
:10233000F801DE011D9601900D928A95E1F7F801F2
:1023400040815181E2809091E1016091E201209110
:10235000E4013091E5012115310531F06F3F31F491
:1023600081E09F3F19F403C081E001C080E0F82FB5
:10237000F1709F2E80FD46C1F801A380B48081EEEC
:10238000C82E81E0D82EF090E301F501E21BF30B9B
:10239000FF2009F4DFC08091E601E83CF10508F078
:1023A0009BC0282F207F09F052C0561313C0491339
:1023B00011C0FE2CE1100EC08F7080618093E60189
:1023C0000E940911C6010E9456108091E601F80191
:1023D000858358C1AB2831F05F3F31F481E04F3F36
:1023E00019F403C081E001C080E080FD03C081E0FA
:1023F0008E2502C080E090E0F82FF170FF2E80FF64
:102400001CC08091AF012091B00136E0821709F421
:1024100017C190E0389FF001399FF00D1124EF545F
:10242000FE4F6181561306C06081461303C062816E
:10243000E61203C001968770E9CFFE2CEE2009F466
:1024400021C18091E60181608093E6015AC0561354
:1024500006C0491304C0E11002C0F8019FC04D87B7
:102460005E878D859E850E94C410882379F1EE20B9
:1024700069F12091E601822F82958F7090E002979A
:1024800074F08091E1019091E20198878F83198621
:10249000BB86AA862C87CE0107960E94561086E03E
:1024A000F801A1EEB1E001900D928A95E1F70E944A
:1024B00017110E9409110DC0561729F14D875E872B
:1024C0008D859E850E94C41081112CC0C8010E9478
:1024D0005610FF24F394D6C0282F207F69F77A2D59
:1024E000B98AA88A6E2D89890E94C91081EE91E06F
:1024F0000E94561086E0F60111928A95E9F70E9433
:102500000911F12CBFC04913D9CFE110D7CFF80181
:102510008583C8010E94561086E0F60111928A95C3
:10252000E9F7B0C0EE2091F22091E601822F82956A
:102530008F7090E002970CF4B2CF8091E1019091FE
:10254000E2019A8389831B82BD82AC822E83CE01F5
:102550000196A3CFE83CF10508F047C0FE2CEE2021
:1025600009F4B4CF561330C049132EC02091E601B0
:1025700020FD21C0822F82958F70482F50E0411599
:102580005105C9F0F80125834F30510541F08F5FA7
:10259000982F9295907F822F8F70892B8583C80109
:1025A0000E94561086E0F801A1EEB1E001900D9274
:1025B0008A95E1F742C086E0F801A1EEB1E0019012
:1025C0000D928A95E1F75EC04D875E878D859E8569
:1025D0000E94C410811163CF8091E60181608093D5
:1025E000E601C8010E9456104DC07A2DB98AA88A0A
:1025F0006E2D89890E94C91086E0F60111928A9594
:10260000E9F71BC0EE2009F461CF4D875E878D8509
:102610009E850E94C410F82E882309F457CF86E0C7
:10262000F801A1EEB1E001900D928A95E1F781EEFB
:1026300091E00E94F70C0E9417110E94091122C01C
:102640004D875E878D859E850E942916292F2295AC
:102650002F70223028F49F7039F0811105C00BC013
:10266000243028F49F7049F4805E883020F0C8013F
:102670000E9456109F2CF92C05C0F8019581907F7F
:1026800099F7F9CF8F2D61960FB6F894DEBF0FBE84
:10269000CDBFDF91CF911F910F91FF90EF90DF9011
:1026A000CF90BF90AF909F9008951F93CF93DF93EB
:1026B000CDB7DEB72C970FB6F894DEBF0FBECDBFF7
:1026C0004F83588769877A878B879C87CE010796C7
:1026D0000E9483118823D1F09F8188852A853B85BC
:1026E000232B31F08F3F31F481E09F3F19F403C079
:1026F00081E001C080E080FD47C04F815885698539
:102700007A858B859C850E94D8103EC086E0FE01AC
:102710003796DE01119601900D928A95E1F7FF81BF
:10272000E8856A857B856115710531F0EF3F31F4ED
:1027300081E0FF3F19F403C081E001C080E080FD2B
:1027400023C02091B00130E0C9010196877099271C
:102750004091AF0150E084179507F1F1F983EA83C6
:102760007D836C8396E0929FD001939FB00D1124DE
:10277000AF54BE4FFE01319601900D929A95E1F74C
:102780008093B0010E94E81016E08091AF01909113
:10279000B001891771F1189FC00111248F549E4F09
:1027A0000E948311882329F1E091AF011E9FF0015F
:1027B0001124EF54FE4F40815181628173818481E5
:1027C00095810E94D8108091AF0190E001968770AA
:1027D00099278093AF01D9CF0E949C101092B0012D
:1027E0001092AF01E1EEF1E086E0DF011D928A95E3
:1027F000E9F72C960FB6F894DEBF0FBECDBFDF9180
:10280000CF911F910895EF92FF920F931F93CF9353
:10281000DF938C01892B09F46CC0F12CEE24E39436
:10282000E8012196F8018491843740F4843008F05F
:1028300051C0813081F0823019F15BC0853709F4D5
:1028400044C0A8F19CE7980F903708F052C08F77EA
:102850000E949F0D41C00E5F1F4FFE01849190E2C8
:10286000980F983050F48770FE2D01C0FF0F8A95A5
:10287000EAF78F2F0E94C01614C00E94FD0C2DC0D5
:102880000E5F1F4FFE01849190E2980F983060F424
:102890008770FE2D01C0FF0F8A95EAF78F2F0E94E7
:1028A000C6160E94EF1619C00E949F0D16C00E5F3B
:1028B0001F4FFE01C491CC2381F08FE99FE0019767
:1028C000F1F700C00000C150F6CF0E5F1F4FFE01B0
:1028D000F49003C00E94FD0C8E018F2D882309F413
:1028E0009FCFEFE9FFE03197F1F700C00000815082
:1028F000F5CFDF91CF911F910F91FF90EF90089549
:10290000089508950C9481140C9482140E948414E8
:102910006093090270930A0280930B0290930C0259
:102920000C9486100C9486140F931F930091090247
:1029300010910A0220910B0230910C02602B712B36
:10294000822B932B1F910F910C9486140F931F933E
:102950000091090210910A0220910B0230910C02A1
:1029600060237123822393231F910F910C9486146B
:102970000F931F930091090210910A0220910B02FC
:1029800030910C0260277127822793271F910F91A6
:102990000C9486140C9481140E94CA14609305024E
:1029A0007093060280930702909308020C9486109D
:1029B00060E070E0CB010C94CC140F931F9341E0C6
:1029C00050E060E070E08A019B0104C0000F111F1D
:1029D000221F331F8A95D2F7C901B8011F910F91A9
:1029E0000C94CC140F931F9341E050E060E070E032
:1029F00004C0440F551F661F771F8A95D2F7809138
:102A0000050290910602A0910702B09108028A0186
:102A10009B01082B192B2A2B3B2BC901B8011F91B5
:102A20000F910C94CC140F931F9341E050E060E0A1
:102A300070E004C0440F551F661F771F8A95D2F7B8
:102A40004095509560957095809105029091060291
:102A5000A0910702B09108028A019B010823192363
:102A60002A233B23C901B8011F910F910C94CC1468
:102A70000F931F9341E050E060E070E004C0440F0A
:102A8000551F661F771F8A95D2F780910502909196
:102A90000602A0910702B09108028A019B01082753
:102AA00019272A273B27C901B8011F910F910C94C0
:102AB000CC140F931F9300910502109106022091F0
:102AC000070230910802602B712B822B932B1F91F0
:102AD0000F910C94CC140F931F9300910502109149
:102AE000060220910702309108026023712382239D
:102AF00093231F910F910C94CC140F931F9300916B
:102B00000502109106022091070230910802602709
:102B10007127822793271F910F910C94CC1408954D
:102B20002CE0929F800D1124E82FE695E695E6951E
:102B3000877051E001C0550F8A95EAF785E0E89F5C
:102B4000F0011124E951FE4F20E030E070E04081B7
:102B5000CB01022E02C0969587950A94E2F7817008
:102B6000819584278523842781932F5F3F4F2530CC
:102B7000310569F708952CE0929F800D1124682F8C
:102B8000669566956695982F977085E0689FB00169
:102B9000112440E050E080E0FB01E40FF51FE95113
:102BA000FE4F208130E0092E02C0369527950A9409
:102BB000E2F721703327042E01C0220F0A94EAF7AE
:102BC000822B4F5F5F4F4530510531F70895BF921B
:102BD000CF92DF92EF92FF920F931F93CF93DF93E9
:102BE0008C01C0900502D0900602E0900702F090A0
:102BF00008028091090290910A02A0910B02B09103
:102C00000C02C82AD92AEA2AFB2ACFE1D0E0D70150
:102C1000C6010C2E04C0B695A795979587950A9482
:102C2000D2F780FD04C0219790F7B12C07C0BC2ECD
:102C3000B8018C2F0E944E050197A9F38B2DDF91CF
:102C4000CF911F910F91FF90EF90DF90CF90BF90A9
:102C50000895CF93DF93EC010E94E715BE010E9417
:102C60004E05DF91CF9108951F93CF93DF93EB0132
:102C70009091AE01992321F0CB010E94291613C037
:102C8000882349F0CB010E94E715182F682FCE0149
:102C90000E94901504C0CB010E94BB15182FBE01E5
:102CA000812F0E944E05DF91CF911F910895809151
:102CB0000D02859585958595089580910D02877003
:102CC000089590910D02977081E009F480E00895D5
:102CD000CF9390915A0292FB222720F92817E1F016
:102CE000C82F892FC0FB82F980935A028091590224
:102CF00090915A020E9486178091320280FF0CC088
:102D00001F92CF938AE794E09F938F930E941604BB
:102D10000F900F900F900F90CF91089580915A02CD
:102D200082FB882780F991E089270C94681681E05E
:102D30000C94681680E00C94681680913102089516
:102D400090913102892B8093310208958095909162
:102D5000310289238093310208951092310208953F
:102D600090913002892B8093300208958095909144
:102D70003002892380933002089510923002089522
:102D800090912F02892B80932F0208958095909126
:102D90002F02892380932F02089510922F02089505
:102DA00080910E02089508950C94D3160C94D416B5
:102DB00090915A0292FD08C090910E02981721F04E
:102DC00080930E020C94D616089580910E028823EB
:102DD00029F010920E0280E00C94D6160895E0912E
:102DE0000001F0910101809131028083E0910001A6
:102DF000F0910101908180913002892B8083E091D4
:102E00000001F0910101908180912F02892B808334
:102E100080910E02882381F0E0910001F091010180
:102E20009081892B808380910001909101010E9403
:102E3000111881110E94E516809100019091010105
:102E40000C94270B0C94D31690915A0292FD10C04B
:102E500098E0899F90011124262B20930D020E9457
:102E6000F21480910D028595859585950C94221715
:102E70000C94F21410920D0280E00C942217209111
:102E80000D028095822380930D02982F977041F454
:102E900030E0482F082E000C550B2417350721F47D
:102EA00090915A0292FF07C08595859585950E945D
:102EB00013150C943A1708956FEF7FEF80E090E0C0
:102EC0000C949E2180E090E00E947A2121E08A3ECD
:102ED0009E4F09F020E0822F089582E090E00C944C
:102EE000722183E090E00C947221CF9384E090E013
:102EF0000E947221C82F82E290E00E9472212C2F42
:102F000030E0A901582BCA01CF910895CF93C92F62
:102F1000682F84E090E00E9480216C2F82E290E094
:102F2000CF910C948021AB01BC018FE090E00C9418
:102F30009221AB01BC0183E190E00C94922160E00E
:102F400070E0CB010C94991760E070E0CB010E9417
:102F500093170C949F176AEE7EEF80E090E00E943A
:102F60009E2160E082E090E00E94802160E083E0AA
:102F700090E00E9480211092090210920A021092A1
:102F80000B0210920C0260E084E090E00E9480212D
:102F900060E082E290E00E94802160E085E090E0C5
:102FA0000E94802160E086E090E00E9480216FEF27
:102FB00087E090E00E94802140E050E0BA0188E084
:102FC00090E00E94922160E08DE090E00E948021DC
:102FD00040E050E0BA0188E190E00E94922160E078
:102FE00087E190E00E94802140E050E0BA018CE14E
:102FF00090E00E94922160E070E080E290E00E9408
:103000009E2140E050E0BA0188E190E00E949221C8
:103010000C94A4170C94AB17682F8EE090E00C94DE
:103020008021FC01329680910C01882331F080913F
:10303000590287FF02C09EE101C096E080E09150F6
:1030400028F021912223D9F38F5FF9CF08956623C9
:1030500051F120910C012223E9F02091590227FF20
:1030600019C0462F4695469546954E31E0F4677057
:1030700021E030E002C0220F331F6A95E2F7FC0125
:10308000E40FF11D828190E02823392381E0232B76
:1030900069F409C0FC01329608962191621729F063
:1030A000E817F907D1F780E0089581E008959C01C1
:1030B000FC0132969FEF80E04191461789F09F3FD7
:1030C00019F4411101C0982F8F5F8630A9F79F3FF7
:1030D00039F0F901E90FF11D97FDFA956283089522
:1030E00008959C012A5F3F4FFC014281461301C0B5
:1030F0001282019682179307B9F70895262F269515
:10310000269526952E3170F4FC01E20FF11D6770B3
:1031100021E030E001C0220F6A95EAF78281282B76
:10312000228308958091320280FF0CC01F926F931A
:103130008DEA94E09F938F930E9416040F900F9056
:103140000F900F900895262F2695269526952E31BF
:1031500078F4FC01E20FF11D677021E030E001C05E
:10316000220F6A95EAF72095828128232283089509
:103170008091320280FF0CC01F926F938FE894E021
:103180009F938F930E9416040F900F900F900F90B3
:10319000089520910C01222329F02091590227FD46
:1031A0000C947E180C94571820910C01222329F0BE
:1031B0002091590227FD0C94A3180C9471182091AA
:1031C0000C01FC013296222331F08091590287FFD5
:1031D00002C08EE101C086E0DF011D928A95E9F709
:1031E000089508950C94F1180C94F118CF930E944F
:1031F000F4180E942C080E94F218C0E08C2F0E9444
:103200007307892B29F4CF5FC430C1F780E001C078
:1032100081E0CF9108950C94F1180C940B198091D2
:103220007302843049F10E940D1980E00E94260546
:103230001092330220E488E190E00FB6F894A8954C
:10324000809360000FBE2093600083B7817F84600D
:1032500083BF83B7816083BF7894889583B78E7F5F
:1032600083BF0FB6F894A895809160008861809321
:103270006000109260000FBE08950C94F1180E9437
:103280009C100E941B0B0E9426050C943D191F9256
:103290000F920FB60F9211248F939F93AF93BF930A
:1032A00080913302811113C080916B0290916C0266
:1032B000A0916D02B0916E024196A11DB11D809347
:1032C0006B0290936C02A0936D02B0936E02BF915B
:1032D000AF919F918F910F900FBE0F901F901895F7
:1032E00082E084BD93E095BD9AEF97BD80936E0018
:1032F00008952FB7F89480916B0290916C02A09181
:103300006D02B0916E022FBF08952FB7F8946091AF
:103310006B0270916C0280916D0290916E022FBFD2
:1033200008959C014FB7F89480916B0290916C02C4
:10333000A0916D02B0916E024FBF821B930B089556
:1033400078941F920F920FB60F9211248F939F9330
:10335000AF93BF9380916B0290916C02A0916D022C
:10336000B0916E020196A11DB11D80936B029093E6
:103370006C02A0936D02B0936E02BF91AF919F91CA
:103380008F910F900FBE0F901F90189581E0809342
:10339000E00080E28093D8001092C9008FE19EE4A3
:1033A0000197F1F700C0000087E090EBDC0180930B
:1033B0007C0290937D02A0937E02B0937F029CE0FA
:1033C00088E10FB6F894A895809360000FBE9093A3
:1033D0006000FFCF90938F0180938E0108958091BC
:1033E000570208950895CF93DF9300D01F92CDB771
:1033F000DEB790917302943019F589837B836A83D9
:1034000082E08093E9008FEF9091E800815095FD74
:1034100006C095ED9A95F1F700008111F5CF8091E6
:10342000E80085FF0DC040E050E063E070E0CE01B1
:1034300001960E94C31C8091E8008E778093E8007B
:103440000F900F900F90DF91CF910895BC0184E011
:103450000C94F319BC0183E00C94F319CF93DF9320
:1034600020910C01222339F02091590227FF03C03B
:1034700060E222E002C068E021E02093E9002FEF43
:103480003091E800215035FD06C035ED3A95F1F751
:1034900000002111F5CF2091E80025FF1DC0EC01AF
:1034A00080910C01811105C040E050E068E070E0BF
:1034B00003C070E040E050E0CE010E94C31C809148
:1034C000E8008E778093E80080E2FE01A7E3B2E097
:1034D00001900D928A95E1F7DF91CF91089580EFE9
:1034E00094E00E947D0380917202811109C00E94C4
:1034F000541E0E94B11E8091E20084608093E2001D
:1035000008958CEE94E00E947D031092720208955B
:1035100088EE94E00C947D0384EE94E00C947D039B
:1035200080EE94E00C947D03209135022F5F822F72
:1035300062E30E946021992319F0209335020895D7
:103540001092350280913602882371F180917302C6
:10355000843041F58091E9008F702091EC00922F2A
:10356000917020FD90E8892B93E09093E900909171
:10357000EB0090FF14C09091EE0097FF10C0909167
:10358000E80095FF03C01092F100F9CF9091E80098
:1035900090FF05C09091E8009E779093E8008F70AF
:1035A0008093E90010923602089542E061EC81E0D8
:1035B0000E94CD1D42E261EC82E00E94CD1D42E2FC
:1035C00061EC83E00C94CD1D80917502833009F489
:1035D00060C030F4813071F0823009F499C00895F0
:1035E0008A3009F485C08B3009F46BC0893009F04A
:1035F000A7C020C080917402813A09F0A1C08091D7
:10360000E800877F8093E8008091780290917902AA
:10361000892B21F460E287E392E003C060E080E060
:1036200090E070E00E940E1D8091E8008B778093FF
:10363000E800089580917402813209F081C0809180
:10364000780290917902029708F07AC08091E800A0
:10365000877F8093E8008091E80082FD05C080911B
:1036600073028111F8CF6CC02091F3008091F200B9
:1036700090E0922B029729F48091F1008B7F8130AA
:1036800021F48091F100809357028091E8008B77BC
:1036900053C080917402813A09F052C0809178023F
:1036A00090917902892B09F04BC08091E800877FC7
:1036B0008093E8008091E80080FFFCCF80910C01AE
:1036C00036C0809174028132D9F580917802909150
:1036D0007902892BA9F58091E800877F8093E80023
:1036E0000E94021E8091760280930C010C949C1023
:1036F00080917402813221F58091E800877F809368
:10370000E8000E94021E809177028093580208957B
:1037100080917402813AA1F48091E800877F8093C0
:10372000E8008091E80080FFFCCF809158028093F0
:10373000F1008091E8008E778093E8000C94021EDF
:1037400008959FB7F894109236029FBF909173022C
:10375000943009F057C09091E9009F703091EC00CF
:10376000232F217030FD20E8922B23E02093E900E5
:103770002091EB0020FF43C02091EE0027FF3FC0C7
:1037800020913402222321F02091E80025FF37C048
:103790001092340226E03091E80035FD15C03091DA
:1037A0007302343061F53091EB0035FD28C02150B3
:1037B00021F481E08093340222C0EFE9FFE03197E9
:1037C000F1F700C00000E7CF8093F1008091E8009E
:1037D00085FD0AC08091E80080FFFCCF8091E80061
:1037E0008E778093E80006C08FB7F89421E020938D
:1037F00036028FBF9F709093E90080E008959F701C
:103800009093E9008FEF089584B7877F84BF0FB648
:10381000F894A89580916000886180936000109270
:1038200060000FBE90E080E80FB6F89480936100CE
:10383000909361000FBE0E94D30B0E94541E0E9401
:10384000B11E8091E20084608093E20078940E942F
:1038500045210E94E10B82E091E00E94160B8FEC63
:1038600094E00E947D03809173028530C9F48BEC53
:1038700094E00E947D0380917302853079F40E9468
:103880000F19809171028823B1F30E94F6188823E2
:1038900091F30E94AD1C0E949C10EDCF0E943F1935
:1038A0000E940F0C0E94DD0BDECF0C94571C292FB9
:1038B000332723303105C9F060F42130310581F020
:1038C0002230310509F041C08BE590E024E135E07C
:1038D00040C021323105E1F02232310531F135C0ED
:1038E00082E190E02FE635E034C0992781309105E0
:1038F00049F028F0029749F5E4EFF4E005C0E0E173
:10390000F5E002C0E4E0F5E0849190E09F0121C081
:1039100063307105D0F4660F771FFB01E857FE4F47
:103920002081318189E090E014C06330710568F432
:10393000FB01EE0FFF1FEE57FE4F20813181FB018F
:10394000E158FE4F808190E004C080E090E020E0EC
:1039500030E0FA0131832083089580E189BD82E15E
:1039600089BD09B400FEFDCF8091D8008F7D809382
:10397000D8008091E00082608093E0008091E000B8
:1039800081FDFCCF0895CF92DF92EF92FF920F93CB
:103990001F93CF93DF93EC018B017A010E94211ECC
:1039A000811133C0E114F10439F0F7018081918174
:1039B000081B190BC80FD91FC12CD12C01151105DB
:1039C00019F18091E80085FD16C08091E8008E779E
:1039D0008093E800E114F10449F0F70180819181BE
:1039E000C80ED91ED182C08285E00FC00E94211E60
:1039F000882321F30AC089918093F10001501109B5
:103A0000FFEFCF1ADF0ADACF80E0DF91CF911F916D
:103A10000F91FF90EF90DF90CF90089520917A0260
:103A200030917B022617370748F06115710539F48C
:103A30002091E8002E772093E80001C0B901FC0135
:103A400020E06115710579F1809173028823F1F10D
:103A50008530F1F18091E80083FD3CC08091E80061
:103A600082FD2EC08091E80080FFEBCF2091F30013
:103A70008091F20090E0922B6115710551F0883031
:103A8000910538F421912093F1006150710901965C
:103A9000F3CF21E0089709F020E08091E8008E77CD
:103AA0008093E800CECF2111CFCF0AC0809173025E
:103AB000882361F0853061F08091E80083FD0AC0C1
:103AC0008091E80082FFF2CF80E0089582E00895BF
:103AD00083E0089581E0089520917A0230917B027D
:103AE0002617370748F06115710539F42091E80071
:103AF0002E772093E80001C0B901FC0120E0611598
:103B0000710591F180917302882309F440C08530DA
:103B100009F43FC08091E80083FD3DC08091E8003A
:103B200082FD2FC08091E80080FFE9CF2091F30053
:103B30008091F20090E0922B6115710559F0883068
:103B4000910540F424912093F10031966150710960
:103B50000196F2CF21E0089709F020E08091E8007B
:103B60008E778093E800CBCF2111CCCF0AC0809113
:103B70007302882361F0853061F08091E80083FD55
:103B80000AC08091E80082FFF2CF80E0089582E0D1
:103B9000089583E0089581E00895982F973068F59F
:103BA0009093E900981739F07091EC002091ED00A6
:103BB0005091F00003C0242F762F50E021FD02C069
:103BC0009F5FECCF3091EB003E7F3093EB00309164
:103BD000ED003D7F3093ED003091EB00316030938C
:103BE000EB007093EC002093ED005093F0002091D7
:103BF000EE0027FDE5CF80E008958F708093E90007
:103C000081E008958091740287FF11C08091E800DF
:103C100082FD05C0809173028111F8CF11C080919F
:103C2000E8008B770BC080917302882349F0809164
:103C3000E80080FFF8CF8091E8008E778093E8005D
:103C400008952091E4003091E50095E64091EC0064
:103C5000842F817040FF23C08091E80080FD1DC04B
:103C600080917302882399F0853099F08091EB0060
:103C700085FD11C04091E4005091E50024173507FF
:103C800029F3915011F09A01E1CF84E0089582E088
:103C9000089583E0089581E0089580E008954091BB
:103CA000E80042FFDDCF08950E94C21E0E94CA1E96
:103CB000E0EEF0E0808181608083E8EDF0E08081DB
:103CC0008F77808319BCA7EDB0E08C918E7F8C93A9
:103CD00080818F7E80831092720208950F931F93CC
:103CE000CF93DF930E94C21E0E94CA1EC8EDD0E08F
:103CF00088818F77888388818068888388818F7D99
:103D0000888319BC1092730210926F021092710294
:103D10001092700200EE10E0F80180818B7F8083AA
:103D200088818160888342E060E080E00E94CD1D50
:103D3000E1EEF0E080818E7F8083E2EEF0E0808132
:103D400081608083808188608083F80180818E7F9C
:103D50008083888180618883DF91CF911F910F914B
:103D60000895E8EDF0E080818F7E8083E7EDF0E05C
:103D700080818160808384E082BF81E080937202D1
:103D80000C946E1EE8EDF0E080818E7F80831092AF
:103D9000E20008951092DA001092E10008951F9257
:103DA0000F920FB60F9211242F933F934F935F936F
:103DB0006F937F938F939F93AF93BF93EF93FF93F3
:103DC0008091E10082FF0BC08091E20082FF07C07A
:103DD0008091E1008B7F8093E1000E94941A809192
:103DE000DA0080FF1FC08091D80080FF1BC0809147
:103DF000DA008E7F8093DA008091D90080FF0DC0B9
:103E000080E189BD82E189BD09B400FEFDCF81E07A
:103E1000809373020E946F1A05C019BC109273023E
:103E20000E94811A8091E10080FF19C08091E20018
:103E300080FF15C08091E2008E7F8093E200809128
:103E4000E20080618093E2008091D80080628093DC
:103E5000D80019BC85E0809373020E948C1A80916F
:103E6000E10084FF30C08091E20084FF2CC080E13B
:103E700089BD82E189BD09B400FEFDCF8091D800E3
:103E80008F7D8093D8008091E1008F7E8093E10048
:103E90008091E2008F7E8093E2008091E200816059
:103EA0008093E20080916F02882311F084E007C0C4
:103EB0008091E30087FD02C081E001C083E0809330
:103EC00073020E94901A8091E10083FF29C08091C3
:103ED000E20083FF25C08091E100877F8093E100AD
:103EE00082E08093730210926F028091E1008E7FD6
:103EF0008093E1008091E2008E7F8093E2008091C8
:103F0000E20080618093E20042E060E080E00E9495
:103F1000CD1D8091F00088608093F0000E94881A87
:103F2000FF91EF91BF91AF919F918F917F916F9191
:103F30005F914F913F912F910F900FBE0F901F9067
:103F400018951F920F920FB60F9211242F933F9343
:103F50004F935F936F937F938F939F93AF93BF9391
:103F6000CF93DF93EF93FF93C091E900CF708091DF
:103F7000EC00D82FD17080FDD0E81092E90080913C
:103F8000F000877F8093F00078940E94E51F1092E4
:103F9000E9008091F00088608093F000CD2BCF7015
:103FA000C093E900FF91EF91DF91CF91BF91AF9165
:103FB0009F918F917F916F915F914F913F912F9141
:103FC0000F900FBE0F901F9018951F93CF93DF9304
:103FD000CDB7DEB7AA970FB6F894DEBF0FBECDBF40
:103FE000E4E7F2E08091F100819322E0EC37F20700
:103FF000C9F70E94E41A8091E80083FF2EC18091E6
:10400000740290917502492F50E04A30510508F032
:1040100024C1FA01EC58FF4F0C946C21803821F038
:10402000823809F01AC108C0809170029091710223
:10403000992389F082600FC0809178028F70873059
:1040400008F00BC18093E9008091EB0085FB882785
:1040500080F91092E9009091E800977F9093E80032
:104060008093F1001092F100D1C0282F2D7F09F02C
:10407000F4C0882319F0823061F0EFC0809176029D
:10408000813009F0EAC0933009F080E0809371023A
:104090002EC08091760281112AC0809178028F70A3
:1040A0002FEF280F263008F0D8C08093E900209128
:1040B000EB0020FF1CC0933021F48091EB00806264
:1040C00014C09091EB0090619093EB0021E030E000
:1040D000A90102C0440F551F8A95E2F74093EA00F8
:1040E0001092EA008091EB0088608093EB001092C0
:1040F000E9008091E800877F8093E8000E94021E1B
:10410000ACC08111AAC0109176021F778091E300A4
:104110008078812B8093E3008091E800877F8093F3
:10412000E8000E94021E8091E80080FFFCCF809191
:10413000E30080688093E300111102C082E001C0B7
:1041400083E08093730289C08058823008F085C074
:1041500080917602909177028C3D53E0950779F536
:1041600083E08A838AE289834FB7F894DE0113964D
:1041700020E03EE051E2E32FF0E050935700E4915D
:1041800020FF03C0E295EF703F5FEF708E2F90E04D
:10419000EA3010F0C79601C0C0968D939D932F5FB3
:1041A000243149F74FBF8091E800877F8093E80072
:1041B0006AE270E0CE0101960E940E1D16C0609169
:1041C000780270917902AE014F5F5F4F0E94551CDB
:1041D000BC01892B09F441C09091E800977F90932E
:1041E000E80089819A810E946C1D8091E8008B779C
:1041F0008093E80032C0803881F58091E800877FA5
:104200008093E80080916F028093F1008091E80034
:104210008E7772CF811121C08091760290917702C2
:1042200099270297D4F48091E800877F8093E80073
:104230008091760280936F020E94021E80916F022D
:10424000811106C08091E30087FD02C081E001C0BA
:1042500084E0809373020E94D51A8091E80083FF66
:104260000AC08091E800877F8093E8008091EB008E
:1042700080628093EB00AA960FB6F894DEBF0FBE63
:10428000CDBFDF91CF911F910895CF93809173029D
:104290008823A1F0C091E900CF709091EC00892FA4
:1042A000817090FD80E8C82B1092E9008091E800B1
:1042B00083FD0E94E51FCF70C093E900CF91089560
:1042C000991B79E004C0991F961708F0961B881F68
:1042D0007A95C9F780950895EE0FFF1F0590F49128
:1042E000E02D0994F999FECF92BD81BDF89A9927E6
:1042F00080B50895A8E1B0E042E050E00C94A6211A
:10430000262FF999FECF92BD81BDF89A019700B48E
:10431000021639F01FBA20BD0FB6F894FA9AF99A2E
:104320000FBE08950396272F0E9481210E948021AD
:10433000252F0E948121242F0C9481210196272F63
:104340000E9481210C948021DC01CB01FC01F999B0
:10435000FECF06C0F2BDE1BDF89A319600B40D92D1
:0C43600041505040B8F70895F894FFCF8A
:10436C000F02EF192E1AF2192A1A261A01E200E985
:10437C0000EA00B500B600B700CD008301CC008A7E
:10438C000192019401210223022402250226022714
:10439C00022A02B300B4006F007000818283F1F036
:1043AC003067F4F5F6F79496349790953536E2002D
:1043BC00E900EA00B500B600B700CD008301CC00DF
:1043CC008A01920194012102230224022502260271
:1043DC0027022A02B300B4006F0070008182834070
:0E43EC006D221006A305810526053F05580524
:00000001FF
